:020000040800F2
:100000000000022061AA0008DD470008DF47000861
:10001000E1470008E3470008E5470008000000004A
:10002000000000000000000000000000518F0008E8
:10003000E747000800000000F18F0008478A000829
:10004000B1AA0008B1AA0008B1AA0008B1AA000824
:10005000B1AA0008E9470008B1AA0008B1AA00083F
:10006000B1AA0008B1AA0008B1AA0008B1AA000804
:10007000ED470008B1AA0008FD470008B1AA000832
:10008000B1AA0008B1AA0008B1AA0008B1AA0008E4
:10009000B1AA0008B1AA0008B1AA0008B1AA0008D4
:1000A000B1AA0008B1AA0008B1AA0008B1AA0008C4
:1000B0000D4800081D4800082D4800083D4800086C
:1000C0004D480008B1AA0008B1AA0008B1AA00086A
:1000D000B1AA00085D4800086D4800087D48000886
:1000E000B1AA0008B1AA0008B1AA0008B1AA000884
:1000F0008D480008B1AA0008B1AA0008B1AA0008FA
:10010000B1AA0008B1AA00089D480008B1AA0008D9
:10011000B1AA0008B1AA0008AD480008B1AA0008B9
:10012000BD480008B1AA0008B1AA0008B1AA000899
:10013000B1AA0008B1AA0008B1AA0008B1AA000833
:10014000B1AA0008B1AA0008B1AA0008B1AA000823
:10015000B1AA0008B1AA0008B1AA0008B1AA000813
:10016000B1AA0008B1AA0008B1AA0008B1AA000803
:10017000B1AA0008B1AA0008B1AA00080000000056
:08018000B1AA0008B1AA0008B1
:1001C0000348044B834202D0034B03B118477047E6
:1001D0001001002010010020000000000548064B1F
:1001E0001B1AD90F01EBA301491002D0034B03B135
:1001F0001847704710010020100100200000000087
:1002000010B5064C237843B9FFF7DAFF044B13B15E
:100210000448AFF300800123237010BD10010020BB
:10022000000000004834010808B5044B1BB1044924
:100230000448AFF30080BDE80840CFE700000000AD
:100240001401002048340108844641EA000313F0F9
:1002500003036DD1403A41D351F8043B40F8043BCD
:1002600051F8043B40F8043B51F8043B40F8043B90
:1002700051F8043B40F8043B51F8043B40F8043B80
:1002800051F8043B40F8043B51F8043B40F8043B70
:1002900051F8043B40F8043B51F8043B40F8043B60
:1002A00051F8043B40F8043B51F8043B40F8043B50
:1002B00051F8043B40F8043B51F8043B40F8043B40
:1002C00051F8043B40F8043B51F8043B40F8043B30
:1002D00051F8043B40F8043B403ABDD2303211D3D0
:1002E00051F8043B40F8043B51F8043B40F8043B10
:1002F00051F8043B40F8043B51F8043B40F8043B00
:10030000103AEDD20C3205D351F8043B40F8043BCF
:10031000043AF9D2043208D0D2071CBF11F8013BCD
:1003200000F8013B01D30B8803806046704700BF93
:10033000082A13D38B078DD010F003038AD0C3F1A2
:100340000403D21ADB071CBF11F8013B00F8013B84
:1003500080D331F8023B20F8023B7BE7043AD9D343
:10036000013A11F8013B00F8013BF9D20B78037018
:100370004B7843708B78837060467047830730B545
:1003800046D08418844604E003F8011B9D0704D07E
:100390009C46A4456346F7D130BD013A0244A2EB26
:1003A0000C02032A29D9CCB204EB04240F2A04EB53
:1003B00004442FD9A2F1100C2CF00F0C03F11005FE
:1003C000AC44C3E90044C3E9024410336345F8D1A7
:1003D00012F00C0F02F00F0E18D02EF0030C9C44FC
:1003E000AEF104051A4642F8044B6245FBD125F0F4
:1003F000030404330EF003022344002ACCD0C9B214
:100400001A4403F8011B9342FBD130BD7246F4E756
:100410000346C6E79646E0E710B51C4C0029246861
:100420009AB02DDB009004904FF40270ADF80C00F0
:100430004FF00000199013D001394FF6FF70029170
:100440000591ADF80E006946204600F053FB421CB2
:1004500001DA8B232360009B00221A701AB010BDB2
:100460004FF6FF7002910591ADF80E0069462046E7
:1004700000F040FB431C01DA8B2323601AB010BD4F
:100480008B2323604FF0FF30F8E700BF000000200F
:1004900030B51446002C9BB005462EDB1A464FF4AF
:1004A0000273ADF80C304FF00003009104911993E2
:1004B00013D04FF6FF73013CADF80E3069461E9B1A
:1004C0000294059400F016FB421C01DA8B232B608A
:1004D000009B00221A701BB030BD4FF6FF73ADF8C1
:1004E0000E3069461E9B0294059400F003FB431CEA
:1004F00001DA8B232B601BB030BD8B2303604FF0E0
:10050000FF30F8E7014B1868704700BF000000207B
:1005100070B50F4B0F4DAB42A3EB050607D0B610DD
:10052000002455F8043B01349847A642F9D812F04C
:100530008BFF094D094B5E1BAB424FEAA60606D066
:10054000002455F8043B01349847A642F9D870BD01
:10055000004001080040010800400108084001086F
:1005600000207047024A0349034800F06FBC00BFF7
:1005700050000020A9080008040000200C4B41682E
:10058000994210B5044601D000F08EF9A168094BDC
:10059000994202D0204600F087F9E168064B994263
:1005A00004D02046BDE8104000F07EB910BD00BF69
:1005B0002C01002094010020FC0100200020704745
:1005C0002DE9F8432A4C2B49DFF8BC90DFF8BC80BA
:1005D000294FC4F83811002504230822294604F1C4
:1005E0005C00264EE360C4E90055C4E90455A560EB
:1005F0006566A561FFF7C2FE214B636708222946A5
:1006000004F1C400C4E90849C4E90A87C4E91A55D9
:10061000C4E91E552567C4F8CC50C4F88050266341
:10062000FFF7ACFE174BC4F8DC30294604F1680331
:10063000082204F59670C4F88830C4E92398C4E908
:100640002576C4E93455C4E93855C4F8D850C4F8FF
:100650003451C4F8E850FFF791FE04F1D003C4E927
:100660003D98C4E93F76C4F8F030BDE8F88300BF98
:100670002C01002065050008F90E00081D0F000878
:100680000900010012000200910E0008B90E0008D6
:10069000F8B5254BD3F838310646002B3CD0234F14
:1006A000D7E90134013B04D51DE05A1C04F168046C
:1006B00019D0B4F90C50013B002DF6D11C4BE3606E
:1006C000C4E90155C4E9045565662560A5610822A1
:1006D000294604F15C00FFF751FEC4E90D55C4E959
:1006E00012552046F8BD3D680DB12F46D8E74FF4AE
:1006F000D671304600F03AFC044680B10423C0E9CC
:1007000000530C302946A0604FF4D0722546FFF705
:1007100035FE3C602F46C3E7FFF752FFBFE70C23CF
:1007200038603360DDE700BF2C010020500000205E
:100730000100FFFF036A03B17047044B044AD3F87A
:1007400038310262002BF7D13AE700BF2C010020BC
:100750007D050008704700BF704700BF024A03498B
:10076000002000F073BB00BF5000002061050008AE
:10077000024A0349002000F069BB00BF500000207E
:10078000BD050008B1F90C302DE9F0411D070C46FC
:1007900080463FD44A68002A58DDE56A002D36D0ED
:1007A0000022D8F80060C8F8002013F480525AD113
:1007B000216A01234046A8470246501C66D0B4F97E
:1007C0000C30E56A590705D56368D21A636B0BB123
:1007D000236CD21A0023216A4046A847421CB4F970
:1007E0000C3042D022692260DF044FF000026260C8
:1007F00000D56065616BC8F8006041B104F1440345
:10080000994202D0404600F047FC00236363002079
:10081000BDE8F0810E69002EF9D09B070D6808BF76
:100820004B690E6018BF0023AD1B8B600BE02B469D
:100830003246216AA76A4046B847B0F1000CA5EBE2
:100840000C05664406DD002DF1DCE0E70A6C002AA9
:10085000A3DCDCE7B4F90C3043F04003A3814FF094
:10086000FF30BDE8F081626DACE7D8F800101D29BB
:10087000F2D80C4ACA40D507EED522692260002280
:100880006260DA04B6D50029B3D0B3E7D8F80030F7
:10089000002B94D01D2B01D0162BDBD1C8F80060A3
:1008A000B5E700BF010040200B69B3B110B50446A5
:1008B00082B008B1036A5BB1B1F90C3013B9002002
:1008C00002B010BD204602B0BDE81040FFF75ABF8D
:1008D0000191FFF72FFF0199EEE70020704700BF5D
:1008E000B8B138B5036904463BB10C4B1D680DB176
:1008F0002B6A53B1B4F90C300BB9002038BD214636
:100900002846BDE83840FFF73DBF2846FFF712FFF5
:10091000F0E7034A0349044800F098BA00000020B9
:1009200050000020A9080008040000202DE9F0472D
:100930008F681D46AF420B680C46164636D8B1F993
:100940000CC01CF4906F0ED13D46184631462A4625
:1009500000F0E4F9A368DF1B2368A7602B440020A4
:100960002360BDE8F0874A69096902EB42025F1A19
:1009700002EBD2726B1C52103B44934292BF9146E1
:1009800099461A461CF4806F804611D0114600F03B
:10099000EDFA824600B321693A46FFF755FCA38978
:1009A00023F4906343F08003A38105E02F46CCE756
:1009B00000F0F8FB824658B10AEB0703A9EB0707E2
:1009C000A760C4F810A0C4F8149023602F46BCE7B9
:1009D0002169404600F060FBA3890C2243F04003EC
:1009E000C8F800204FF0FF30A381BAE72DE9F04F9F
:1009F000936883B09246002B75D04FF0000B1768B8
:100A00008B680A6881460C465D4645E0B4F90C30B7
:100A100013F4906F2CD0D4E90401161A01EB4102B3
:100A200002EBD272711C52102944914292BF90463F
:100A300088460A465B0539D51146484600F096FAC5
:100A4000019000283DD032462169FFF7FDFBA289C5
:100A5000019B22F4906242F08002A2819819A8EBD7
:100A60000606A660C4F8148023612060A8462E46BE
:100A70003246594600F052F9DAF80810A3682268A5
:100A8000A3EB08033244491BA3602260CAF8081094
:100A900049B3D7E900B5083798461046002DF8D07D
:100AA0009D421E46B2D2A8462E46E1E70146484680
:100AB00000F078FB03460028D0D12169484600F0B9
:100AC000EBFAA3890C2243F04003C9F800204FF051
:100AD000FF30A38100220023CAF80820CAF804309E
:100AE00003B0BDE8F08F00200023CAF8043003B043
:100AF000BDE8F08F2DE9F0471C468B891D069CB0A0
:100B00000F468046924603D50B69002B00F0ED801E
:100B10000023099343F22003ADF829309AF80030FE
:100B2000794D03940126002B71D0D14603E019F8CA
:100B3000013F002B72D0252BF9D1B9EB0A0470D1FB
:100B400099F80020002A62D000234FF0FF32CDE94F
:100B5000052309F10109049307938DF853301A9383
:100B600004E006FA03F313430493A1464C4605221E
:100B700014F8011B284600F04BFBA246049A431BC5
:100B80000028EED1D00644BF20238DF85330110742
:100B900099F8001044BF2B238DF853302A294ED1E9
:100BA000039B19680433002903937ADB079199F8B2
:100BB00001102E2959D05548032200F029FB40B1DD
:100BC000524A049B801A4022824013430AF1010AD0
:100BD00004931AF8011B4E488DF82810062200F0E5
:100BE00017FB002863D04B48002853D003AA00927B
:100BF000494B3A4604A94046AFF30080421C06D058
:100C0000099B034409939AF80030002B8DD1BB89CE
:100C10005B0676D409981CB0BDE8F087B9EB0A04EE
:100C2000F5D02346524639464046FFF77FFE013055
:100C3000EDD0099B99F800202344099382E7A1F1A4
:100C40003002092A88BFCA46B3D8079B00E00134A6
:100C5000217803EB830302EB4303A1F13002092A5D
:100C6000F5D92E290793A246A5D19AF801102A2971
:100C700026D1039B9AF802101A6805920433002AC1
:100C80000AF102000393B8BF4FF0FF338246B8BFAA
:100C9000059390E7039B073323F00703083303937F
:100CA000AEE7494242F00202079104927FE703AAAD
:100CB0000092194B3A4604A9404600F0A1FB9DE77B
:100CC000A1F130020023092A05930AF1010A3FF637
:100CD00072AF1AF8011F03EB830302EB4303A1F188
:100CE0003002092AF5D9059365E7402100F03EF965
:100CF0003860386110B140237B6109E70C23C8F8E4
:100D000000304FF0FF3086E7603601086836010892
:100D10006C360108000000002D0900088842F0B57B
:100D200014D98B18834211D9032A00EB020166D82B
:100D300002F1FF3C4AB16FEA0C0C0A469C4413F8DE
:100D4000011D02F8011D6345F9D1F0BD032A0FD83A
:100D5000034602F1FF3C002AF7D00CF1010C013BE5
:100D60008C4411F8012B03F8012F6145F9D1F0BD36
:100D700041EA00039B073ED10F2A64D9A2F1100378
:100D800001F1100423F00F032031A446194400F1AF
:100D9000100E5CF8105C4EF8105C5CF80C5C4EF8C1
:100DA0000C5C5CF8085C4EF8085C5CF8045C4EF87F
:100DB000045C0CF1100C8C450EF1100EE9D1E11819
:100DC00012F00C0F034402F00F0E03F1100338D0A1
:100DD0002EF00305043D1A1F5E198C465CF8044B87
:100DE00042F8044FB242F9D10431043329442B4470
:100DF0000EF00302ADE702F1FF3C0346ADE741EA26
:100E00000304A4071F4602D002F1FF3C93E7A2F1BE
:100E1000040E2EF003068E1B4FEA9E0E8C4664468F
:100E200053F8045D4CF8045DB442F8D1CEEB8E73F8
:100E300001EB830107EB83073B1F043902F0030238
:100E400076E7724685E703469646C1E72DE9F84303
:100E50000746884616464FF00009D6E90154013D81
:100E600010D4A389012B08D9B4F90E3001332146DF
:100E7000384602D0C04749EA0009013D6B1C04F125
:100E80006804EED13668002EE7D14846BDE8F88305
:100E900010B50C46B1F90E1000F0E8F8002803DB9D
:100EA000636D0344636510BDA38923F48053A3815C
:100EB00010BD00BF002070472DE9F0410C46B1F98C
:100EC0000C101F46CB05054616460BD421F4805165
:100ED000A1813B46B4F90E1032462846BDE8F041E8
:100EE00000F0E6B9B4F90E100223002200F044F934
:100EF000B4F90C10EAE700BF10B50C46B1F90E10BA
:100F000000F03AF9B4F90C30421C0EBF23F48053C0
:100F100043F480536065A38110BD00BFB1F90E108A
:100F200000F018B970B5104E336805460C46B3B1E1
:100F30002146284600F0B2FB431C0CD0C41C24F010
:100F40000304A04205D0211A284600F0A7FB013077
:100F500001D0204670BD4FF0FF34204670BD1946C9
:100F600000F09CFB3060E3E7680200202DE9F843C5
:100F7000CD1C25F0030508350C2D38BF0C25002DA0
:100F8000064618DBA94216D8DFF8DC8000F03CF9F1
:100F9000D8F80420A2B1144603E0636822467BB16E
:100FA0001C4623685B1BF8D40B2B1FD8A242636836
:100FB00054D053600CE00C2333600020BDE8F8836C
:100FC00029463046FFF7AEFF431C044619D00560A2
:100FD000304600F01BF904F10B00231D20F0070040
:100FE000C21A1CBF1B1AA350BDE8F8836119A242A4
:100FF000256014BF5160C8F80410635163684B60EA
:10100000E6E7D8F804701FB33C467F68002FFBD199
:1010100023683946304604EB030900F03FFB814565
:1010200016D12368ED1A29463046FFF77BFF0130C1
:101030000ED02368D8F804202B442360536883B172
:10104000A34203D01A465B689C42FBD10023B0E761
:101050000C233360304600F0D9F8AEE7C8F804300E
:10106000B6E7C8F80470B3E76802002038B50D464B
:10107000084C8446114628461A46002323606546DC
:1010800008F000F9431C00D038BD2368002BFBD0CA
:101090002B6038BD70020020002950D038B551F8BF
:1010A000043C0C1F002BB8BFE418054600F0ACF858
:1010B000274A13682BB1A3420CD9216860188342D8
:1010C0002CD0636028461460BDE8384000F09EB81C
:1010D000A3420FD81A465B68002BF9D1116850184B
:1010E000844217D02CD3636054602846BDE8384052
:1010F00000F08CB811685018A04214D020D8216894
:1011000060188342EFD118685B680844C4E90003A3
:101110005460EAE723680B441360E6E718685B68ED
:1011200008442060CDE720680144501883421160D4
:10113000DBD1D3E900040144C2E90014D5E77047CC
:101140000C232B602846BDE8384000F05FB800BF94
:101150006C02002038B5074D0022044608462A607C
:1011600008F0AEF8431C00D038BD2B68002BFBD034
:10117000236038BD7002002038B50D46084C844607
:10118000114628461A4600232360654608F0A2F857
:10119000431C00D038BD2368002BFBD02B6038BD2A
:1011A000700200202DE9F041144641B30AB306460F
:1011B0000D4600F06BFA8442074602D8B4EB500F9C
:1011C00013D821463046FFF7D1FE804650B1BC42CD
:1011D0002246294628BF3A46FFF736F829463046C8
:1011E000FFF75AFF4046BDE8F081A8464046BDE8FB
:1011F000F081A046FFF750FF4046BDE8F081BDE812
:10120000F0411146FFF7B2BE704700BF704700BF04
:1012100001F0FF01102A2BDB10F0070F08D010F8A7
:10122000013B013A8B422DD010F0070F42B3F6D1AB
:10123000F0B441EA012141EA014122F007047FF0C4
:1012400000070023F0E80256083C85EA010586EA1B
:10125000010685FA47F5A3FA87F586FA47F6A5FA57
:1012600087F68EB9EED1F0BC01F0FF0102F0070263
:1012700032B110F8013B013A83EA010313B1F8D10E
:101280000020704701387047002D06BF35460338EF
:10129000073815F0010F07D1013015F4807F02BF28
:1012A000013015F4C03F0130F0BC0138704700BF79
:1012B00038B50D46084C8446114628461A46002388
:1012C0002360654607F0EEFF431C00D038BD23685D
:1012D000002BFBD02B6038BD700200202DE9F84FA9
:1012E00092461F460A698B68DDF828909A42B8BF7B
:1012F0001A46CAF8002091F843300C46064613B14E
:101300000132CAF80020226891065CD5DAF8003074
:101310000233CAF80030226812F0060F11461DD1C0
:10132000E1689942D8BF114618DD4FF0000804F17A
:10133000190B05E0E568DAF80030ED1A45450CDDDB
:1013400001235A4639463046C847013008F10108A2
:10135000F0D14FF0FF30BDE8F88F216894F84330AA
:10136000003B18BF01238A060AD5E1181A4630202F
:1013700081F84300224494F8451082F84410023367
:1013800004F1430239463046C8470130E1D02368B2
:10139000A268216903F00603042B1BD08A4224DDD6
:1013A0004FF00008521A90441A34002501E04545D8
:1013B0001BDA0123224639463046C847013005F181
:1013C0000105F4D1C5E712F0060F11D0003B18BF9C
:1013D0000123D5E7DAF80000E3688A42A3EB0003B3
:1013E00023EAE378DEDC002BDEDC0020BDE8F88FAA
:1013F000E168DAF800309942D8BF114695DCADE7D4
:101400002DE9F047174684B00A7E0C9D0C4606462F
:10141000984601F1430C002A35D0A2F15803D9B205
:10142000202969D8202B67D8DFE813F0E500660093
:10143000660066006600660066006600660066007C
:101440006600AB0070006600660066006600700013
:10145000660066006600660021008200C500660026
:101460006600B5006600820066006600EB002B682F
:1014700022686169181D286010061B6802D4520694
:1014800000F1DF8019600023E1462361CDF8008080
:101490003B4603AA21463046FFF720FF013020D00B
:1014A00023694A4639463046C047013019D023687F
:1014B000E068DDF80C909B0718D5484516DD00253F
:1014C00004F1190A04E0E068A0EB0903AB420DDD6A
:1014D0000123524639463046C047013005F1010527
:1014E000F1D14FF0FF3004B0BDE8F0874845B8BFF8
:1014F000484604B0BDE8F08784F84220012004F19A
:1015000042090023206184F84330BFE72A6823683A
:10151000111D1806296002D4590600F19480126842
:101520001146002AC0F2938056484FF00A0E13E08D
:1015300020682B6810F0800F53F8041B02D140067E
:1015400048BF89B26F2A4F482B6000F08F804FF060
:101550000A0E002384F843306268A260002A52DB3E
:10156000236823F00403236000294CD1002A40F0B3
:101570008280E146BEF1080F56D0ACEB090323612F
:1015800084E72B681A6804332B6004F1420984F85D
:1015900042200120B5E72B686268191D2960D3F845
:1015A000009000214846FFF733FE002861D0A0EBF1
:1015B00009006060A5E7236843F0200323607822D8
:1015C000314884F845202A6813F0800F52F8041B34
:1015D00003D113F0400F18BF89B22A60DA0744BF65
:1015E00043F02003236019B9236823F0200323600C
:1015F0004FF0100EADE7582384F84530214823689A
:10160000E1E72368DBE77546E146B1FBF5F305FB4F
:10161000131A0A46AA4210F80A1009F8011D1946C1
:10162000F3D2BEF1080FA8D12368DD07A5D5626803
:1016300023699A42A1DC302309F8013C09F1FF3902
:101640009BE719801FE7B2F900100A4669E7626854
:10165000A2602D20002A84F8430002DB23F004035B
:1016600023600A2507484942AE46CDE74FF0080EF1
:101670006FE7606845E7037884F8423004F1420977
:1016800078E700BF743601088836010851F8043C39
:10169000181F002BBCBF0B58C018704738B5074D3A
:1016A0000022044608462A6007F0B8FD431C00D01B
:1016B00038BD2B68002BFBD0236038BD70020020A2
:1016C0007BB972B90029BEBF00204FF0004106E08F
:1016D00008BF00281CBF6FF000414FF0FF3000F042
:1016E000D3B9ADF1080C6DE904CE002909DB002B5C
:1016F0001ADB00F04DF8DDF804E0DDE9022304B068
:101700007047404261EB4101002B1BDB00F040F8C9
:10171000DDF804E0DDE9022304B0404261EB410161
:10172000524263EB43037047524263EB430300F0C2
:101730002FF8DDF804E0DDE9022304B0404261EB5C
:1017400041017047524263EB430300F021F8DDF89A
:1017500004E0DDE9022304B0524263EB4303704727
:1017600053B94AB9002908BF00281CBF4FF0FF3108
:101770004FF0FF3000F088B9ADF1080C6DE904CEF0
:1017800000F006F8DDF804E0DDE9022304B070475C
:101790002DE9F047089D0F4604468C46002B48D1A2
:1017A0008A42164661D9B2FA82F34BB1C3F12002E4
:1017B00001FA03FC20FA02F29E4042EA0C0C9C4023
:1017C0004FEA164EB7B2BCFBFEF1220C0EFB11CC59
:1017D00042EA0C4201FB07F0904209D9B21801F12C
:1017E000FF3C80F0EE80904240F2EB8002393244C0
:1017F000121AA4B2B2FBFEF00EFB102244EA02441D
:1018000000FB07F7A74209D9341900F1FF3280F035
:10181000DA80A74240F2D7803444023840EA0140DF
:10182000E41B00211DB1DC400023C5E90043BDE8F5
:10183000F0878B4206D90DB1C5E9000100210846A9
:10184000BDE8F087B3FA83F1002948D1BB4202D347
:10185000824200F20781841A67EB0302012094465A
:10186000002DE4D0C5E9004CE1E7002A00F09280A9
:10187000B2FA82F3002B40F0A8808A1A4FEA164E83
:101880001FFA86FC0121200CB2FBFEF70EFB17228B
:1018900040EA02420CFB07F0904207D9B21807F168
:1018A000FF3802D2904200F2E2804746121AA4B2F8
:1018B000B2FBFEF00EFB102244EA02440CFB00FCDB
:1018C000A44507D9341900F1FF3202D2A44500F231
:1018D000CB801046A4EB0C0440EA0740A2E7C1F11C
:1018E00020068B4022FA06FC4CEA030C07FA01F4AE
:1018F00020FA06F3F7404FEA1C49234300FA01F8A7
:101900001FFA8CFEB7FBF9F01C0C09FB107744EAB8
:10191000074400FB0EF7A74202FA01F20AD91CEBBA
:10192000040400F1FF3A80F09B80A74240F29880C7
:1019300002386444E41B9FB2B4FBF9F309FB13447F
:1019400047EA044403FB0EFEA64509D91CEB040438
:1019500003F1FF3780F08280A6457FD9023B6444C3
:1019600043EA0040A4EB0E04A0FB02E7BC4273462E
:10197000B94663D360D05DB1B8EB030264EB0904F0
:1019800004FA06F622FA01F31E43CC40C5E90064CE
:1019900000214CE76208480842EAC1710B0C43EA97
:1019A00000438AB242EA0342B3FBF6F1E407B446CD
:1019B0003746B6461F23B0FBF6F0D21B41EA004182
:1019C00061E7614614E7104628E7C3F1200120FAD9
:1019D00001F29E4027FA01F19F403A434FEA164E2A
:1019E0001FFA86FCB1FBFEF70EFB1710110C41EA43
:1019F000004107FB0CF8884504FA03F43AD9711842
:101A000007F1FF3001D288451FD8A1EB0801B1FBD7
:101A1000FEF808FB0CF70EFB181192B242EA0142E5
:101A2000BA422FD2B21808F1FF31C6D2BA42C4D29C
:101A3000A8F102013244C0E7F0459CD2BEEB02039C
:101A400067EB0C070138B94695E7A6EB0808414457
:101A5000B81EB1FBFEF808FB0CF7DCE73B467FE75E
:101A6000504667E70846FBE63444023832E7023F57
:101A700032441BE7A1EB08013846B1FBFEF808FB36
:101A80000CF7C8E7414698E7704700BF08B410B5A7
:101A9000002A9DB0044636DB4FF40273ADF81430D3
:101AA0004FF000031B930291069120AB17D0013A2F
:101AB0004FF6FF7104920792ADF816101F9A01932A
:101AC00002A9FFF717F8421C01DA8B232360029B5F
:101AD00000221A701DB0BDE8104001B070474FF6EB
:101AE000FF7104920792ADF816101F9A019302A994
:101AF000FFF700F8431C01DA8B2323601DB0BDE81B
:101B0000104001B070478B2303604FF0FF30F5E7C2
:101B10000CB410B5214B00291C689CB038DB4FF089
:101B200000034FF402721B93ADF81420029006904C
:101B30001FAB18D001394FF6FF7204910791ADF831
:101B4000162002A91E9A01932046FEF7D3FF421CDD
:101B500001DA8B232360029B00221A701CB0BDE8BF
:101B6000104002B070474FF6FF7204910791ADF834
:101B7000162002A91E9A01932046FEF7BBFF431CC4
:101B800001DA8B2323601CB0BDE8104002B070471F
:101B90008B2323604FF0FF30F5E700BF00000020EB
:101BA00038B5124B1D682A6B04461AB10023C2E9EE
:101BB000044338BD182000F053FE0246286378B174
:101BC00001200021C2E90401094B0A480A49916039
:101BD000C2E900030B2393810023C2E9044338BD0B
:101BE000064B0748462100F073F800BF00000020B4
:101BF00034126DE60E33CDABECDE0500A03B0108E0
:101C0000B83B01081C4B10B51C68226B8AB11369E4
:101C10001A4954691A4803FB01F100FB0411A3FBA4
:101C20000030013341EB0001C2E9043121F00040F2
:101C300010BD182000F014FE0246206388B1114C3C
:101C4000114B0E48114991609FED097BC2E9004399
:101C50000B2393810E4B014682ED047BC2E90431D4
:101C600010BD0C4B0C48522100F032F8AFF300804D
:101C70000100000000000000000000202DF4515879
:101C80002D7F954C0E33CDAB34126DE6ECDE0500A6
:101C90002E7F954CA03B0108B83B010810B4044CC2
:101CA00003460A4620685DF8044B194600F090BED2
:101CB0000000002000B5054B83B0014601AA18685A
:101CC00000F086FE03B05DF804FB00BF00000020BA
:101CD00000B50B4C25681446EE681A4685B00346DD
:101CE0000D464CB107490095CDE90114304606492F
:101CF00000F022FF00F0B4FB04490C46F3E700BFFC
:101D000000000020E43B0108F43B0108F03B01081F
:101D100008B513460022FFF7DBFF00BF01292DE9BC
:101D2000F0415BD94FF00108C64600244FF0FF3563
:101D3000434608E0A3EB05081C464FF0010E04EBF8
:101D40000E03994210D900EB050CC75C1CF80E601D
:101D5000B742EFD332D04FF001082546C64644447F
:101D600004EB0E039942EED80127C2F80080BE466C
:101D700000244FF0FF363B4607E09F1B1C464FF008
:101D8000010E04EB0E03994210D900EB060C10F87B
:101D900003801CF80EC0E045EFD817D00127264677
:101DA000BE463C4404EB0E039942EED80136681C53
:101DB000864201D317603046BDE8F081C6450ABFB0
:101DC00074440EF1010E4FF0010EB8E7BE450ABF94
:101DD00074440EF1010E4FF0010ED2E701270026E8
:101DE000E8E700BF2DE9F04F174687B005AA804607
:101DF0008946384619461C46FFF790FF059B02931B
:101E000082460246F918384600F0DCFF00285FD110
:101E100044F400630193029BE31A06460546A9EBCE
:101E200004010393CAF1010BA9421BD35645334663
:101E300038BF53469C4223D9581EEA1838444244BE
:101E400002E001339C421BD012F801CB10F801EFE5
:101E5000E645F6D09C4213D95D441D44A9424FF09B
:101E60000006E3D2019908EB090000F0D9FF814494
:101E7000A9EB0401A942D9D2002007B0BDE8F08F38
:101E800056450AF1FF337AD205EB0A02424407EBCA
:101E90000A00009502E09E4211D0734610F801CD71
:101EA00012F8015DAC4503F1FF3EF4D0009D013313
:101EB00001369E4207D8029B039E1D44B4E70136BB
:101EC0009E42009DF7D908EB050007B0BDE8F08FF2
:101ED000A4EB0A03534538BF534603F1010B07EB4C
:101EE0000A03CDF814B000250193CAF10106544548
:101EF00041D90AF1FF3CA9EB040E05EB0A0242446A
:101F000007EB0C015346CDF800C002E001339C42C0
:101F100031D012F8010B11F801CF8445F6D09C4264
:101F2000DDF800C027D935441D44AE4517D35445CC
:101F3000E3D805EB0A01019A414401E0BB42C2D05B
:101F400012F801CD11F8010D84451346F6D05D4419
:101F5000A9EB04039D4202D85445CAD8E9E708EB2F
:101F6000090044F4006100F05BFF8144A9EB040325
:101F7000AB42BCD280E7BAF1000FDAD1A3E75346F7
:101F800096E700BF2DE9F04FADF21C4D934605AD2D
:101F90002A4680468A46584619461C46FFF7BEFE2A
:101FA0002B4681460DF2144243F8044F9342FBD175
:101FB0006CB1601E58440BF1FF3212F8011FA31AD6
:101FC000013B06AE5B44824246F82130F5D12B68D6
:101FD00001934A460BEB0301584600F0F3FE00283C
:101FE00078D144F4006307460546AAEB040E029339
:101FF000661EAE4511D308EB050C06AA1CF8063088
:1020000052F82330C3B11FB1019A9A4288BFA31A74
:102010001D44AE454FF00007EDD208EB0A000299CF
:1020200000F0FEFE8244AAEB040EAE45E3D200208F
:102030000DF21C4DBDE8F08F4F453B4638BF4B4677
:102040009E4218D9591EEA1859444244009502E0AC
:1020500001339E420ED012F8010B11F8015F854248
:10206000F6D09E42009D06D9C9F101022A44D51836
:102070000027BEE7009D4F4509F1FF3380F08180C6
:1020800005EB090242440BEB09010095CDF80C90D9
:1020900002E09F4213D04B4611F8015D12F8010D8A
:1020A000854203F1FF39F4D0009DDDF80C90013337
:1020B00001379F4209D8019B1D44E71A99E7013770
:1020C0009F42009DDDF80C90F5D960460DF21C4D45
:1020D000BDE8F08FA4EB09034B4538BF4B460133F5
:1020E0002B60019344F400630025AAEB040E0093D7
:1020F000661EAE4509D308EB050006AA835D52F8BB
:1021000023306BB11D44AE45F5D208EB0A000099AF
:1021100000F086FE8244AAEB040EAE45EBD286E7C1
:10212000B14517D209F1FF3105EB09025944424488
:102130004B4602E00133B3420CD012F8017B11F898
:1021400001CFBC45F6D09E4204D9C9F101022A4410
:10215000D518CEE7B9F1000F3FF46AAF05EB0901DE
:1021600041440BEB090202E05B453FF461AF12F81A
:1021700001CD11F8017DBC451346F5D0019B1D44EE
:10218000C1E74B4694E700BF2DE9F0410D460978C1
:1021900090B0044600294AD06A78002A6AD0AB7809
:1021A000002B48D0E878002878D02B79002B66D017
:1021B000284600F065FB064640F40071204600F01A
:1021C0002FFE864245D8FE2E00F28180801B271804
:1021D0004022711C6846FEF7D1F86EB16A1E5FFAA4
:1021E00086FC901912F8013F03F03F036B44A91AD3
:1021F000614490421970F5D1013CA35D03F03F03A7
:102200006B441B781C44A74203D227E04444A742F6
:1022100024D314F806C00CF03F0CEC443246294697
:1022200020469CF8008000F0CDFD0028EED120462D
:1022300010B0BDE8F081007842EA014238B140EACE
:1022400003439A4214F8010FF8D1023CEFE79A4297
:10225000FBD00024204610B0BDE8F081BB5DB8196A
:10226000002BF6D04FF4006100F0DAFD0744A742DE
:10227000C2D2EEE710B0BDE8F04100F019B9227803
:10228000002AE6D0296809BA42EA0323204614F856
:10229000012FB2B19942F7D1C41EC8E7120442EA35
:1022A0000162217842EA0323024641EA020059B161
:1022B000B3EB002F14F8011F4FEA0022F5D1033CC5
:1022C000B5E79942C5D1E7E79342C2D1F7E70146A6
:1022D00033462A46204610B0BDE8F04152E600BF22
:1022E0002DE9F047074649480E46354616F801EBFA
:1022F00010F80EC01CF0080CF7D1BEF12D0F5AD00B
:10230000BEF12B0F03BF96F800E06446AE1C644696
:102310004BB9BEF1300F5CD00A23DFF8F4804FF0E8
:10232000050A99460AE0102B4AD04FF0FF38B8FB57
:10233000F3F803FB08FA6FEA0A0A994600252846D3
:1023400005E02CD009FB00C0012516F801EBAEF129
:10235000300CBCF1090F06D9AEF1410CBCF1190FDC
:102360000BD8AEF1370C634510DDB5F1FF3FECD073
:102370004045E6D94FF0FF35E7E7AEF1610CBCF11F
:10238000190F03D8AEF1570C6345EEDC6B1C0BD074
:1023900004B140420AB165B91160BDE8F087D44587
:1023A000D0DD4FF0FF35D0E722233B602846002ADE
:1023B000F3D0711EF0E796F800E00124AE1CA7E709
:1023C000BEF1300F11D04FF00F0A6FF070489946F0
:1023D000B4E7337803F0DF03582B0BD008234FF01A
:1023E000070A6FF060489946A8E7307800F0DF00F0
:1023F0005828E8D14FF0100996F801E04FF00F0A85
:1024000002366FF070484B4698E700BF6D34010804
:102410009999991964E700BF10B4044C8446134697
:1024200020685DF8044B0A46614659E70000002029
:1024300010B4044C8446134620685DF8044B0A46E9
:1024400061464DE70000002010B4044C03460A46E4
:1024500020685DF8044B194600F00AB8000000201F
:1024600008B5062000F010FC012006F005FF00BFB3
:1024700070B5A1FB025454B92946FEF777FD064614
:1024800018B12A462146FDF779FF304670BD0C226F
:1024900002600026F9E700BF10B4044C03460A4668
:1024A00020685DF8044B1946FEF77CBE0000002052
:1024B00011F0FF01034600F0030239D08ABB026825
:1024C00010B501EB012E0EEB0E4E8EEA0204A2F1C6
:1024D000013323EA0203A4F1013222EA0402134386
:1024E00013F0803F0FD150F8044F84EA0E0CA4F192
:1024F0000133ACF1013223EA040322EA0C02134354
:1025000013F0803FEFD0037823B936E010F8013F95
:10251000002B32D09942F9D110BD8A4228D09A07B7
:1025200029D01A7818460133002AF6D11046704790
:10253000CAB90268A2F1013323EA020313F0803F13
:1025400008D150F8042FA2F1013323EA020313F05B
:10255000803FF6D003785BB110F8013F002BFBD130
:102560007047990705D0184613F8012B002AF8D1B7
:1025700070471846DDE71846A1E7184610BD00BFB2
:1025800002780B78012A28BF9A4240F0D8806DE982
:10259000044540EA0104CDE902676FF0000C4FEA00
:1025A00044721AB380EA010414F0070F6BD100F0F3
:1025B000070420F0070004F0030521F007014FEAAB
:1025C000C505F0E8042314F0040FF1E804670CFAE1
:1025D00005F462EA040266EA04060BD063EA040327
:1025E000624667EA0407664604E000BFF0E8042399
:1025F000F1E8046782FA4CF582EA0604A4FA8CF446
:102600006CBB83FA4CF583EA0705A5FA8CF595B9FE
:1026100050E9022351E9026782FA4CF582EA060486
:10262000A4FA8CF483FA4CF583EA0705A5FA8CF535
:102630002543DBD09CB92DBAB5FA85F424F0070404
:1026400027FA04F1DDE9026723FA04F303F0FF003F
:1026500001F0FF01FDE80445A0EB0100704724BA3A
:10266000B4FA84F424F0070426FA04F1DDE90267E1
:1026700022FA04F202F0FF0001F0FF01FDE8044538
:10268000A0EB0100704714F0030F3CD110F00304DD
:1026900028D150F8082B51F8083B82FA4CF582EA11
:1026A0000305A5FA8CF55DB950F8042C51F8043CEB
:1026B00082FA4CF582EA0305A5FA8CF5002DE8D0E4
:1026C0002DBAB5FA85F424F0070423FA04F122FAAE
:1026D00004F202F0FF0001F0FF01FDE80445A0EB69
:1026E000010070474FEAC40420F0030050F8082BA3
:1026F00021F0030151F8083B0CFA04F462EA0402E9
:1027000063EA0403C9E710F003041DD0A1EB040140
:1027100020F00300E40750F8042B06D012D28B7887
:102720005FFAA2F4E41A06D12BB1CB785FFAB2F4C7
:10273000E41A00D133B920465DF8104B7047A2EB84
:102740000300704701F1040150F8042BCC0721F07D
:10275000030151F8043B48D824D222F07F4482FA86
:102760004CF594EA1325A5FA8CF50AD165B951F810
:10277000043B84EA0204B4EB036F0ED150F8042B3F
:10278000EBE74FEA132355E035F07F454DD108784C
:10279000FDE80445C0F1000070474FEA126203F003
:1027A000FF0347E002EA1C4482FA4CF594EA134521
:1027B000A5FA8CF50AD165B951F8043B84EA020404
:1027C000B4EB034F0CD150F8042BEBE74FEA134363
:1027D00030E015EA1C4528D10B884FEA124229E067
:1027E0004FEA124203EA1C4324E002F0FF0482FA9B
:1027F0004CF594EA1365A5FA8CF50AD165B951F840
:10280000043B84EA0204B4EB032F09D150F8042BF3
:10281000EBE74FEA13630DE015F0FF0F05D10B68EE
:102820004FEA122223F07F4304E04FF00000FDE85E
:102830000445704712BA1BBA82FA4CF482EA0304C8
:10284000A4FA8CF5B5FA85F402FA04F203FA04F35B
:102850004FEA1260FDE80445A0EB1360704700BF2B
:10286000024B01461868FEF781BB00BF0000002044
:10287000024B01461868FEF70FBC00BF00000020A5
:1028800030B490F800F020F007016FF0000C10F069
:10289000070491F820F040F048804FF000046FF0FA
:1028A0000700D1E9002391F840F000F1080082FA16
:1028B0004CF2A4FA8CF283FA4CF3A2FA8CF34BBBE1
:1028C000D1E9022382FA4CF200F10800A4FA8CF25A
:1028D00083FA4CF3A2FA8CF3E3B9D1E9042382FA28
:1028E0004CF200F10800A4FA8CF283FA4CF3A2FA3D
:1028F0008CF37BB9D1E9062301F1200182FA4CF275
:1029000000F10800A4FA8CF283FA4CF3A2FA8CF3DB
:10291000002BC6D0002A04BF04301A4612BAB2FAFD
:1029200082F200EBD20030BC7047D1E9002304F002
:102930000305C4F100004FEAC50514F0040F91F837
:1029400040F00CFA05F562EA05021CBF63EA0503D4
:1029500062464FF00004AAE78AB330B540EA0104AA
:10296000A40786460B4617D1032A07D814E0043A79
:1029700023D01CF0803F20D1032A26D9DEF8004066
:10298000194653F8045BA4F1013CAC4270462CEAB2
:10299000040C0EF1040EEAD003780C78013AA3423D
:1029A00008BF121807D00CE06BB110F8013F11F806
:1029B000014FA34205D19042F6D1002030BD104610
:1029C0007047181B30BD184630BD70461946E3E706
:1029D0002DE9F047DFF8749007460E46904600F068
:1029E000EDF9D9F800504DB133781C466BB134463F
:1029F00002E014F8013F3BB13D2BFAD1384600F01C
:102A0000DFF90020BDE8F087A41B28680028F5D076
:102A100022463146FFF7A0FF28B92868035D3D2B09
:102A200000EB040A04D055F8040F0028F0D1E5E7C4
:102A3000D9F80030EB1A9B103846C8F8003000F087
:102A4000BFF90AF10100BDE8F08700BF6C0000206B
:102A500000B583B001AAFFF7BBFF03B05DF804FB2C
:102A600080EA0102844612F0030F4FD111F0030FE8
:102A700032D14DF8044D11F0040F51F8043B0BD046
:102A8000A3F101329A4312F0803F04BF4CF8043B9B
:102A900051F8043B16D100BF51F8044BA3F10132A9
:102AA0009A4312F0803FA4F101320BD14CF8043B61
:102AB000A24312F0803F04BF51F8043B4CF8044B92
:102AC000EAD023460CF8013B13F0FF0F4FEA332303
:102AD000F8D15DF8044B704711F0010F06D011F8E2
:102AE000012B0CF8012B002A08BF704711F0020FD0
:102AF000BFD031F8022B12F0FF0F16BF2CF8022BBB
:102B00008CF8002012F47F4FB3D1704711F8012BDD
:102B10000CF8012B002AF9D1704700BF0CB400B5A6
:102B200083B004AB53F8042B019300F0EFF903B02A
:102B30005DF804EB02B070470EB410B583B005AB7E
:102B4000064C53F8042B01930146206800F0DEF98F
:102B500003B0BDE8104003B0704700BF0000002084
:102B600038B5C46B0CB1002038BD80210546FEF796
:102B7000FDF90246E86330B1031F7C3243F8044F8D
:102B80009342FBD1EFE74FF0FF3038BD30B51F293E
:102B900083B0054608D8C36B0C465BB153F82400DC
:102BA00043F8242003B030BD162303604FF0FF30FC
:102BB00003B030BD80210192FEF7D8F9019AE86395
:102BC00003460028F2D0011F00F17C05002041F8E7
:102BD000040FA942FBD1E1E71F2938B505461ED8ED
:102BE000C26B0C466AB152F8213053B1012B06D0AA
:102BF000591C10D0002142F824102046984700208C
:102C000038BD284600F03AF9224601462846BDE87C
:102C1000384000F01DB916230360012038BD16238B
:102C200003604FF0FF3038BD1F2929D8C26B38B57B
:102C30000C4605469AB152F8243053B1591C0CD0B9
:102C4000012B08D00025204642F8245098472846FA
:102C500038BD012038BD032038BD022038BD802199
:102C6000FEF784F90246E86338B1031F00217C3087
:102C700043F8041F8342FBD1DDE74FF0FF3038BD3E
:102C80004FF0FF30704700BF38B5134B1F281D6849
:102C90001DD8EA6B044662B152F820304BB1012BCB
:102CA00005D0591C0FD0002142F820109847002071
:102CB00038BD284600F0E2F8224601462846BDE825
:102CC000384000F0C5B816232B60012038BD16230C
:102CD0002B604FF0FF3038BD00000020114B1F2843
:102CE00070B51E6808D8F36B04460D464BB153F817
:102CF000240043F8245070BD162333604FF0FF309A
:102D000070BD80213046FEF731F90346F06300289C
:102D1000F4D0021F00217C3042F8041F8242FBD114
:102D2000E5E700BF0000002038B50B4B1D68EC6BD9
:102D30000CB1002038BD80212846FEF717F9E86362
:102D400038B1031F00F17C0243F8044F9342FBD1DA
:102D5000EFE74FF0FF3038BD0000002038B5164BCC
:102D60001F281D6825D8EA6B04469AB152F8243012
:102D700053B1591C0CD0012B08D00025204642F835
:102D800024509847284638BD012038BD032038BD5F
:102D9000022038BD80212846FEF7E8F80246E863A5
:102DA00038B1031F00217C3043F8041F8342FBD15C
:102DB000DCE74FF0FF3038BD00000020704700BF57
:102DC000704700BF032A30B412D941EA0004A407B7
:102DD00084460B4621D11946604653F8044B5CF8F3
:102DE000045BA54219D1043A032AF4D86046194677
:102DF000541E7AB1431E0139021901E09A4209D0EA
:102E000013F8010F11F801CF6045F7D0A0EB0C00CB
:102E100030BC7047002030BC7047541EEAE700BF4A
:102E200099B110B4034601EB000C01E09C4508D0B9
:102E30001A4601331478002CF8D1101A5DF8044BAF
:102E4000704708465DF8044B70470846704700BF5E
:102E500070B50C46084D03460026204611461C4618
:102E60002E6006F001FA431C00D070BD2B68002BC9
:102E7000FBD0236070BD00BF7002002006F0F2B9E5
:102E80009368013B002B936011DA10B49469A3425C
:102E900009DB0A2907D01368581C1060197008460E
:102EA0005DF8044B70475DF8044B00F0DDB9136822
:102EB000581C106019700846704700BF9BB1F8B5E8
:102EC000134406460F46541E5D1E01E0AC4208D076
:102ED00014F8011F3A463046FFF7D2FF431CF5D1E4
:102EE000F8BD0020F8BD0020704700BF936810B502
:102EF00014461BB918460023636010BD00F08EFA1B
:102F00000023A3600023636010BD00BF2DE9F04FD4
:102F10009FB00F4692461C46039018B1036A002BDF
:102F200000F00881BB891D0740F18B803B69002BB5
:102F300000F0878000230B9343F22003ADF831307B
:102F40009AF800307D4D05940126002B72D0D146B1
:102F500003E019F8013F002B7DD0252BF9D1B9EB07
:102F60000A0B7BD199F80030002B63D000234FF07F
:102F7000FF32CDE9072309F10109069309938DF882
:102F80005B301C9304E006FA03F313430693A14657
:102F90004C46052214F8011B2846FEF739F9A246D3
:102FA000069A431B0028EED1D00644BF20238DF89B
:102FB0005B30110799F8001044BF2B238DF85B306C
:102FC0002A2961D1059B1968043300290593C0F2B1
:102FD0008D80099199F801102E296BD05848032251
:102FE000FEF716F940B1564A069B801A40228240ED
:102FF00013430AF1010A06931AF8011B51488DF890
:1030000030100622FEF704F9002875D04E4800283B
:1030100065D005AA00924D4B03983A4606A9AFF336
:103020000080421C06D00B9B03440B939AF800309F
:10303000002B8CD1BB895B060AD40B981FB0BDE86E
:10304000F08F0398394600F091F800283FF472AFF2
:103050004FF0FF30F2E7B9EB0A0BEBD00AF1FF3883
:103060004446039818F8011F3A46FFF709FF023457
:103070000130A4EB0A04DDD0A345F1D80B9A99F8EE
:1030800000305A440B926FE7A1F13002092A88BF41
:10309000CA46A1D8099B00E00134217803EB8303E1
:1030A00002EB4303A1F13002092AF5D92E29099335
:1030B000A24693D19AF801102A2926D1059B9AF8A5
:1030C00002101A6807920433002A0AF102000593DD
:1030D000B8BF4FF0FF338246B8BF07937EE7059B2A
:1030E000073323F00703083305939CE7494242F076
:1030F0000202099106926DE705AA0092134B03980C
:103100003A4606A9FEF77CF98BE7A1F130020023CD
:10311000092A07930AF1010A3FF660AF1AF8011F66
:1031200003EB830302EB4303A1F13002092AF5D933
:10313000079353E7FDF7FEFAF4E600BF6036010897
:10314000683601086C36010800000000BD2E00083A
:1031500010B4054C8446134620685DF8044B0A46BB
:103160006146FFF7D3BE00BF0000002038B53D4BDD
:103170001B6805460C4613B11A6A002A5AD0B4F9E6
:103180000C3019070BD522699AB113F0010221D135
:103190009B075ABF6369A360A260002038BDDA06AE
:1031A00058D558071CD4226943F00803A381002A8C
:1031B000EBD1990528D5180603F0800124D4D8074F
:1031C00041D49D073CD5A2600029E6D043F04003DE
:1031D000A38144E0636900225B42A260A361DCE753
:1031E000616B51B104F14402914204D02846FDF7CD
:1031F00053FFB4F90C300022626322690021C4E954
:10320000002123F02403CFE72146284600F07CF874
:10321000B4F90C30226913F001010FD0616900206C
:103220004942A060A161002AB7D103F080010029C2
:10323000B3D0CBE71846FDF77DFAA0E7980700D496
:103240006169A160EFE76069A2604042A061002966
:10325000A3D0BBE7092243F040032A60A3814FF0CB
:10326000FF3038BD00000020F8B50D461446064674
:1032700010B1036A002B37D0A389A269A2601A0794
:1032800019D52369BBB122686169D31AEDB299429D
:103290002F4620DD0133A1680139A160511C216056
:1032A000157062699A420DD0A389DB0701D50A2DFA
:1032B00008D03846F8BD21463046FFF757FF38B9E9
:1032C0002369E0E721463046FDF7EEFA0028F0D00A
:1032D0004FF0FF37EDE721463046FDF7E5FA0028CD
:1032E000F6D122680123D6E7FDF724FAC4E700BF30
:1032F00010B4044C03460A4620685DF8044B194696
:10330000FFF7B2BF0000002070B5B1F90C300C46D9
:10331000990796B007D504F147030122C4E90432A6
:10332000236016B070BDB4F90E100029054629DBE4
:103330006A4600F0F7F9002822DB4FF48061284646
:10334000019EFDF713FE88B3A389206043F080033C
:1033500006F47046A381B6F5005F4FF48063C4E9BC
:103360000403DED1B4F90E10284600F0C9F9002894
:10337000D7D0A38923F0030343F00103A381D0E74F
:10338000B4F90C3013F0800F14BF40264FF4806660
:1033900031462846FDF7EAFD40B1A389206043F09D
:1033A0008003C4E90406A38116B070BDB4F90C30E3
:1033B0009A05B6D423F0030304F1470243F0020355
:1033C0000121C4E90421A3812260AAE770B50C465B
:1033D000B1F90E10002996B015461E4613DB6A4659
:1033E00000F0A0F900280EDB019901F47041A1F56D
:1033F0000051B1FA81F14FF4806349090020316036
:103400002B6016B070BDA18911F0800102D000219F
:103410004023F3E74FF48063F0E700BF9368002B8D
:1034200000F0B6802DE9F04FB1F90CC01CF0080F88
:1034300083B0174680460C4627D00B692BB31CF08F
:1034400002033D682DD04FF0000ADFF8B0B25646B7
:10345000B9465E453346524628BF5B464046002E7D
:1034600000F08580216AA76AB847002840F3888069
:10347000D9F808301B1A8244361AC9F80830002BD4
:10348000E7D1002003B0BDE8F08F21464046FFF7AA
:103490006DFE002879D1B4F90CC03D681CF0020320
:1034A000D1D11CF0010975D14E460097002E5AD09B
:1034B0001CF4007F2068D4F808B000F0B180B34558
:1034C0005A4600F2DF801CF4906F32D023696269A3
:1034D000A0EB030A02EB420202EBD2720AF10101F5
:1034E00052103144914292BF93468B460A461CF4D7
:1034F000806F00F0E58011464046FDF737FD00285B
:1035000000F0F580524621690190FCF79DFEA289EA
:10351000019B22F4906242F08002A28103EB0A0038
:103520002361ABEB0A03C4F814B0A3602060B34678
:10353000324649460192FDF7F1FBA368019AA3EBDD
:103540000B012368A1601344B24623600026009A51
:103550009368A3EB0A03D1449360002B91D0B4F994
:103560000CC0002EA4D1D5E9009608359EE7D5E918
:1035700000A608356DE721464046FDF795F970B382
:10358000B4F90C3043F04003A3814FF0FF3079E7EA
:10359000002070471E46BA469946184600951F46B9
:1035A0005EB3002831D04A46D4E904132068B24201
:1035B00028BF3246884204D9A16803EB010B5A4563
:1035C00070DC934261DC216AA56A3A464046A8470E
:1035D000B0F1000BD4DDB9EB0B09CCD00120DAF847
:1035E0000830A3EB0B035F44A6EB0B06CAF80830C8
:1035F000002B3FF446AF002ED3D1009A56681346F5
:1036000008320092002EF8D01F6832460A21384650
:10361000FDF7FEFD002867D00130A0EB0709C2E7E7
:103620002369834216D36269B24213D86FF0004314
:10363000B34228BF3346216A93FBF2F3A76A02FB29
:1036400003F340464A46B847B0F1000A98DDA6EBBE
:103650000A067CE7B345DA4628BFB24652464946D9
:10366000FDF75CFBA3682268A3EB0A035244A36046
:103670002260002BEBD121464046FDF715F90028CA
:10368000E5D07DE7B346324653E739460192FDF770
:1036900045FB019AA3689B1AA36023681344236027
:1036A000934698E739465A46FDF738FB23685B4452
:1036B000236021464046FDF7F7F800288BD05FE7EE
:1036C00019464046FDF76EFD034600287FF426AFFD
:1036D00021694046FDF7E0FCB4F90C300C22C8F833
:1036E000002023F080034DE7721C91465CE70C221A
:1036F000B4F90C30C8F8002044E700BF00FCFF7F9D
:1037000038B5074D0022044608462A6005F0E0FD62
:10371000431C00D038BD2B68002BFBD0236038BD84
:103720007002002070B50C46084D03460026204666
:1037300011461C462E6005F0C6FD431C00D070BD2E
:103740002B68002BFBD0236070BD00BF70020020EF
:103750000FB400B5C3B044AB53F8042B01934FF43E
:10376000807102A8FCF758FE002809DDFF2800DD63
:10377000FF204FF47A7382B202A9044803F03DFAA5
:1037800043B05DF804EB04B0704700BFE4050020CF
:1037900008B50268034B9A4200D008BD02F06CFFE6
:1037A000FBE700BF0010004072B6FEE710B594B012
:1037B00008AC302200212046FCF7E0FD00230393F3
:1037C00004930593069307930193224A116C41F0E9
:1037D00080511164126C02F080520192019A02939E
:1037E0001D4B1A6842F480421A601B6803F4804340
:1037F0000293029B052308934FF48033099301231E
:103800000A9302230E934FF480020F920822109223
:103810004FF4A8721192129304231393204601F0DF
:1038200041FF90B90F2303930223049300230593D0
:103830004FF4A05306934FF480530793052103A838
:1038400002F09AF918B914B010BDFFF7ADFFFFF7F9
:10385000ABFF00BF003802400070004008B502F026
:10386000F1FEFFF7A3FF00F02DF800F0BDFA00F025
:1038700083FB00F0D9F900F063FA00F053FE00F08A
:10388000B1FB00F0E5FB00F019FC00F0B9FD00F021
:103890002FFE00F067FE00F0DBFA05F01DFD00F0E2
:1038A00013FB0648FFF754FF0548FFF751FF05F0EB
:1038B000D7F800F08BF905F0E5F8FEE77035010860
:1038C000883501082DE9F04F8DB007AE002407942C
:1038D000089409940A940B9401946F4B1A6B42F06C
:1038E00010021A631A6B02F010020192019A0294FC
:1038F0001A6B42F004021A631A6B02F0040202927D
:10390000029A03941A6B42F080021A631A6B02F057
:1039100080020392039A04941A6B42F001021A6324
:103920001A6B02F001020492049A05941A6B42F099
:1039300002021A631A6B02F002020592059A0694BB
:103940001A6B42F008021A631B6B03F0080306931C
:10395000069BDFF850A122460621504602F0A0FB4C
:10396000DFF84481224640F6BC01404602F098FB55
:10397000DFF8389122460121484602F091FB0122EE
:103980000621484602F08CFB22468121434802F082
:1039900087FB434F22464FF60471384602F080FB06
:1039A00001228021384602F07BFB4FF0060BCDF858
:1039B0001CB00894012509953146384802F07AFA7E
:1039C000CDF81CB0089509940A953146504602F08E
:1039D00071FABC230793089509940A95314640462D
:1039E00002F068FA079508954FF0020ACDF824A076
:1039F0000A953146484602F05DFACDF81CB00895AC
:103A000009940A953146484602F054FA81230793F7
:103A1000089509940A953146204802F04BFA4FF474
:103A20007F430793089509940A953146384602F07A
:103A300041FA4FF48853079308940995314640465C
:103A400002F038FA4FF4006307930895CDF824A0EC
:103A50000A953146404602F02DFA04230793089553
:103A6000CDF824A00A953146384602F023FA1823EF
:103A70000793089409953146384602F01BFA8023D3
:103A800007931123089309940A953146384602F0AA
:103A900011FA0DB0BDE8F08F00380240001002406E
:103AA000000C0240000802400000024000040240F6
:103AB00008B5012005F05CF8FBE7000010B59EB0EA
:103AC000354B0193354B0093354B364A364901202F
:103AD00007F01EFA02AC204607F09CF90DF1640EC7
:103AE000A446BCE80F00AEE80F00DCF80030CEF8CA
:103AF00000302E4B19932E4B1A932E4B1B932E4BAB
:103B00001C9319A807F094F920B94FF47A7005F0C6
:103B10002FF8FAE702AC204607F0A8F90DF1640C83
:103B20000FCCACE80F002368CCF8003019AB0022B2
:103B300011460CA807F0ACF820B14FF47A7005F0EC
:103B400017F8FAE70CAB1D4A1D490AA807F0EAF876
:103B500020B14FF47A7005F00BF8FAE707F05EFE3B
:103B60000246184B0AA909A807F018F920B14FF42A
:103B70007A7004F0FDFFFAE700230893002208A9F9
:103B800009A807F061F8089B013308934FF47A7095
:103B900004F0EEFFF2E700BFE9A90008AFA90008B2
:103BA000A1A9000889A90008E405002025A80008AB
:103BB00045A8000865A80008A5A80008F03B010872
:103BC000B0350108C03501087047000008B50C4841
:103BD00004F0DCFF0B4B18600B4804F0D7FF0B4BD5
:103BE00018600B4A00210B4804F068FF0A4B18606C
:103BF0000A4A00210A4804F061FF0A4B186008BD18
:103C0000343C010878020020243C010874020020A2
:103C1000683C0108B13A000880020020443C0108D9
:103C2000BD3A00087C02002000B585B00023009357
:103C30000193029303931548154A02604FF48032B2
:103C4000426083600361037680F82030C362114ACA
:103C50008262C3600122C26180F83030426101F0AB
:103C60002BFC60B90E230093012301930293694654
:103C7000064801F04DFC28B905B05DF804FBFFF7DC
:103C800093FDEFE7FFF790FDF6E700BFE4020020A9
:103C9000002001400100000F30B589B000230393DC
:103CA0000493059306930793026803F1804303F599
:103CB00090339A4201D009B030BD044600250195E9
:103CC00003F58C335A6C42F480725A645A6C02F4D5
:103CD00080720192019A02951A6B42F004021A63F3
:103CE0001B6B03F004030293029B10230393032333
:103CF000049303A90F4802F0DDF80F480F4B03604F
:103D000045608560C5604FF4806303614FF40063D4
:103D100043614FF400538361C5610562456202F05F
:103D200041FA18B9044BA3639C63C4E7FFF73CFD59
:103D3000F8E700BF0008024084020020106402403F
:103D400008B50B480B4B03601023436000238360CE
:103D5000C36003614361037643768376C37603775A
:103D6000437702F09BFC00B908BDFFF71DFDFBE7A0
:103D70002C0300200064004000B589B000230393A9
:103D800004930593069307930268154B9A4202D059
:103D900009B05DF804FB0021019103F5EA331A6CC8
:103DA00042F000721A641A6C02F000720192019AD9
:103DB00002911A6B42F008021A631B6B03F00803AE
:103DC0000293029B0323039302230493012306938C
:103DD0000923079303A9034802F06CF8D8E700BF52
:103DE00000640040000C024010B582B00024009432
:103DF000164B1A6B42F480021A631A6B02F48002AB
:103E00000092009A01941A6B42F400121A631B6B21
:103E100003F400130193019B224605210C2002F0BC
:103E2000FDFB0C2002F00AFC224605210E2002F0C8
:103E3000F5FB0E2002F002FC22460521382002F09C
:103E4000EDFB382002F0FAFB02B010BD0038024052
:103E500008B50948094B0360002343607F22826054
:103E6000FF22C26003614361836102F00FFD00B96C
:103E700008BDFFF799FCFBE7540300200028004031
:103E800000B585B000230093019302930393026869
:103E90000B4B9A4202D005B05DF804FB022300935D
:103EA0004FF480730393684601F05AFF20B9054B25
:103EB0000122C3F83C2EEEE7FFF776FCF7E700BFE0
:103EC000002800400000474200B587B0002304935B
:103ED000059300930193029303932548254A0260BA
:103EE0005322426083604FF6FF72C26003614361F8
:103EF000836101F007F840BB00230493059304A9F4
:103F00001B4801F0CDF918BB0A230093012301934C
:103F10000022029203926946154801F05BF9D0B97C
:103F200004226946124801F055F9B8B908226946D9
:103F30000F4801F04FF9A0B90C2269460C4801F076
:103F400049F988B907B05DF804FBFFF72DFCD3E70A
:103F5000FFF72AFCD8E7FFF727FCE1E7FFF724FC8F
:103F6000E4E7FFF721FCE7E7FFF71EFCEAE700BF05
:103F7000DC0400200000014010B58CB003AC24220A
:103F800000212046FCF7FAF900230193029314481C
:103F90004FF080420260436083604FF0FF32C260A6
:103FA0000361802383610323039301220592052388
:103FB000079309920B93214600F0D0FF48B90023E4
:103FC0000193029301A9064801F06AF920B90CB0E7
:103FD00010BDFFF7E9FBF2E7FFF7E6FBF7E700BFED
:103FE0009404002010B58CB003AC2422002120469C
:103FF000FCF7C4F90023019302931348134A0260AB
:10400000436083604FF6FF72C260036183610323E4
:104010000393012205920523079309920B932146EE
:1040200000F09CFF48B900230193029301A90648C0
:1040300001F036F920B90CB010BDFFF7B5FBF2E77F
:10404000FFF7B2FBF7E700BF4C040020000400407C
:1040500010B58CB003AC242200212046FCF78EF969
:104060000023019302931348134A02604360836064
:104070004FF6FF72C2600361836103230393012241
:1040800005920523079309920B93214600F066FFE2
:1040900048B900230193029301A9064801F000F9F1
:1040A00020B90CB010BDFFF77FFBF2E7FFF77CFBF8
:1040B000F7E700BF040400200008004010B58CB0F2
:1040C00003AC242200212046FCF758F90023019379
:1040D00002931348134A0260436083604FF0FF323B
:1040E000C2600361836103230393012205920523C8
:1040F000079309920B93214600F030FF48B9002343
:104100000193029301A9064801F0CAF820B90CB046
:1041100010BDFFF749FBF2E7FFF746FBF7E700BFEB
:10412000BC030020000C004000B589B000230393BD
:1041300004930593069307930268154B9A4202D0A5
:1041400009B05DF804FB0021019103F59C335A6C22
:1041500042F001025A645A6C02F001020192019A83
:1041600002911A6B42F010021A631B6B03F01003EA
:104170000293029B4FF4D4430393022304930693C8
:104180000123079303A9034801F094FED8E700BF79
:104190000000014000100240F0B58FB000230993E9
:1041A0000A930B930C930D930368B3F1804F0BD0DC
:1041B000654A934249D0654A934270D0644A93421B
:1041C00000F097800FB0F0BD0024009403F50E338B
:1041D0001A6C42F001021A641A6C02F00102009299
:1041E000009A01941A6B42F001021A631A6B02F0F2
:1041F00001020192019A02941A6B42F002021A63C0
:104200001B6B03F002030293029B4FF400430993DC
:1042100002270A9701250C950D9509AE31464D48A8
:1042200001F048FE082309930A970B940C950D950D
:104230003146494801F03EFE224605211C2002F08D
:10424000EDF91C2002F0FAF9BCE700240394434B7B
:104250001A6C42F002021A641A6C02F00202039213
:10426000039A04941A6B42F002021A631B6B03F068
:1042700002030493049B3023099302230A9301222F
:104280000C920D9309A9344801F014FE2246052131
:104290001D2002F0C3F91D2002F0D0F992E700249E
:1042A00005942E4B1A6C42F004021A641A6C02F048
:1042B00004020592059A06941A6B42F002021A63F0
:1042C0001B6B03F002030693069BC0230993022392
:1042D0000A9301220C920D9309A91F4801F0EAFDEF
:1042E000224605211E2002F099F91E2002F0A6F9AF
:1042F00068E700240794194B1A6C42F008021A640C
:104300001A6C02F008020792079A08941A6B42F09E
:1043100001021A631B6B03F001030893089B03233C
:10432000099302230A9301220C920D9309A90948CB
:1043300001F0C0FD22460521322002F06FF9322043
:1043400002F07CF93EE700BF000400400008004096
:10435000000C00400000024000040240003802400F
:1043600002680E4B9A4200D0704700B583B000221D
:10437000019203F59A33596C41F0020159645B6C68
:1043800003F002030193019B05212C2002F046F962
:104390002C2002F053F903B05DF804FB0004014047
:1043A00000B587B000230193029303930493059310
:1043B000026803F1804303F582339A4202D007B0CA
:1043C0005DF804FB002300930B4B1A6B42F00402D0
:1043D0001A631B6B03F004030093009B4FF470738C
:1043E00001930223029304930323059301A9034835
:1043F00001F060FDE3E700BF003802400008024022
:1044000010B592B000241094119409940A940B945E
:104410000C940D940E940F942022214601A8FBF7D2
:10442000ADFF3148314B03604460846042F2CF03FA
:10443000C360046144618023836100F037FD00287C
:104440003CD100231093119310A9274800F028FFB6
:10445000002836D16023099300220A920B920C9215
:104460000D920E920F9209A91F4800F007FE58BB4B
:10447000042209A91C4800F001FE40BB082209A93A
:10448000194800F0FBFD28BB0C2209A9164800F0D2
:10449000F5FD10BB0023019302930393049305934E
:1044A0004FF400520692089301A90F4800F03EFF16
:1044B000B0B90D48FFF774FF12B010BDFFF774F9E3
:1044C000BFE7FFF771F9C5E7FFF76EF9D0E7FFF730
:1044D0006BF9D3E7FFF768F9D6E7FFF765F9D9E796
:1044E000FFF762F9E5E700BF740300200004014014
:1044F00008B50A480A4B03604FF4E13343600023D8
:104500008360C36003610C2242618361C36102F076
:1045100044FB00B908BDFFF747F9FBE7740600202C
:104520000010014008B50C480C4B03600C4B436075
:10453000002383604FF40052C2604FF48062026136
:104540000C2242618361C36102F027FB00B908BD00
:10455000FFF72AF9FBE700BF2C06002000440040CB
:10456000A086010008B50A480A4B03604FF4E13306
:10457000436000238360C36003610C224261836156
:10458000C36102F00AFB00B908BDFFF70DF9FBE7B4
:10459000E4050020004800402DE9F04F8DB00023D5
:1045A0000793089309930A930B930368804A9342F5
:1045B00009D004467F4A934244D07F4A93427ED03A
:1045C0000DB0BDE8F08F002401947C4B5A6C42F092
:1045D00010025A645A6C02F010020192019A02947D
:1045E0001A6B42F001021A631B6B03F00103029382
:1045F000029B4FF4007307934FF00209CDF820900F
:1046000001250A954FF00708CDF82C8007AF6C4EB6
:104610003946304601F04EFC4FF480630793CDF8E5
:10462000209009950A95CDF82C803946304601F046
:1046300041FC22460521252001F0F0FF252001F054
:10464000FDFFBDE7002403945C4B1A6C42F400327A
:104650001A641A6C02F400320392039A04941A6BDF
:1046600042F008021A631B6B03F008030493049BD7
:10467000202307934FF00209CDF8209001250A95D9
:104680004FF00708CDF82C8007AF4E4E3946304624
:1046900001F010FC40230793CDF8209009950A956E
:1046A000CDF82C803946304601F004FC2246052125
:1046B000262001F0B3FF262001F0C0FF80E700258F
:1046C00005953E4B1A6C42F480221A641A6C02F46F
:1046D00080220592059A06951A6B42F004021A632D
:1046E0001B6B03F004030693069B4FF48067079748
:1046F0004FF0020BCDF820B001260A964FF0070AC2
:10470000CDF82CA00DF11C09DFF8CC8049464046BD
:1047100001F0D0FB4FF400630793CDF820B0099669
:104720000A96CDF82CA04946404601F0C3FB264826
:10473000264B03604FF0006343608560C5600761EE
:10474000456185614FF48073C3614FF44033036268
:10475000456201F027FD28BB1B4BE3639C631C48AB
:104760001C4B03604FF000634360402383600023D1
:10477000C3604FF48062026143618361C3614FF49F
:1047800040320262436201F00DFD70B9104BA36329
:104790009C6300220521272001F040FF272001F023
:1047A0004DFF0DE7FFF700F8D6E7FEF7FDFFEDE759
:1047B0000010014000440040004800400038024022
:1047C00000000240000C02408405002028600240E6
:1047D000240500205860024000080240FEE7FEE782
:1047E000FEE7FEE7FEE770477047000008B50248A5
:1047F00001F0CEFD08BD00BF8405002008B50248C9
:1048000001F0C6FD08BD00BF2405002008B5024820
:1048100000F008FA08BD00BF9404002008B5024863
:1048200000F000FA08BD00BF4C04002008B50248A3
:1048300000F0F8F908BD00BF0404002008B50248E4
:1048400005F066FD08BD00BF6094002008B5024871
:1048500005F02DFE08BD00BF6094002008B5024899
:1048600002F09AFB08BD00BF7406002008B502489C
:1048700002F092FB08BD00BF2C06002008B50248DC
:1048800002F08AFB08BD00BFE405002008B502481D
:1048900000F0C8F908BD00BF7403002008B5024845
:1048A00000F0C0F908BD00BFBC03002008B50248F5
:1048B00000F0B8F908BD00BFBC06002008B50248EA
:1048C00001F066FD08BD00BF8402002010B582B073
:1048D00000240094114B5A6C42F480425A645A6C82
:1048E00002F480420092009A01941A6C42F08052C5
:1048F0001A641B6C03F080530193019B22460F2125
:104900006FF0010001F08AFE22460521084601F001
:1049100085FE052001F092FE02B010BD0038024075
:1049200030B589B0044600230193214B1A6C42F044
:1049300010021A641B6C03F010030193019B02A97F
:1049400003A801F0EFF9069BCBB901F0CBF90346C0
:10495000184AA2FB03239B0C013B1748174A02602D
:1049600040F2E732C26043600023036183608361E9
:1049700000F070FA054630B1284609B030BD01F0AC
:10498000B1F94300E4E70C4800F006F905460028B9
:10499000F2D1362001F052FE0F2C01D90125EBE7B0
:1049A00000222146362001F039FE054B1C60E3E76A
:1049B0000038024083DE1B43BC060020001000408C
:1049C0006000002030B4036A026A22F00102026231
:1049D0004268846924F0730C0C6844EA0C0423F0E8
:1049E000020C8B6843EA0C03114DA84203D005F575
:1049F0008065A84205D123F00803CD682B4323F03E
:104A000004030B4DA84203D005F58065A84207D1E9
:104A100022F440724D6945EA020C8A6942EA0C02AE
:104A2000426084614A684263036230BC704700BFE1
:104A30000000014030B4036A026A22F4807202620C
:104A40004268C46924F0730C0C6844EA0C0523F432
:104A500000738C6843EA0423114CA04203D004F590
:104A60008064A04206D123F40063CC6843EA0423A7
:104A700023F480630A4CA04203D004F58064A04272
:104A800007D122F440524C6942EA04128C6942EA8E
:104A900004124260C5614A68C263036230BC704759
:104AA0000000014030B4036A026A22F480520262BC
:104AB0004468C26922F4E6420D6842EA052223F402
:104AC00000538D6843EA0533094DA84203D005F52C
:104AD0008065A84204D124F480444D6944EA8514D9
:104AE0004460C2614A680264036230BC704700BF20
:104AF0000000014030B4056A046A24F01004046226
:104B0000846924F4407C4CEA022C2CF4704C1B0386
:104B10009BB243EA0C0325F0A005090101F0A001B6
:104B200029438361016230BC704730B4056A046A6E
:104B300024F480740462C46924F0030C4CEA020C6F
:104B40002CF0F00C1B01DBB243EA0C0325F42065CA
:104B5000090201F420612943C361016230BC70473E
:104B600030B4056A046A24F480540462C46924F4ED
:104B7000407C4CEA022C2CF4704C1B039BB243EAA1
:104B80000C0325F42045090301F420412943C361A6
:104B9000016230BC7047704790F83D30012B37D12F
:104BA000022380F83D300268D36843F00103D360EC
:104BB0000368194A934220D0B3F1804F1DD0A2F56B
:104BC0007C42934219D002F58062934215D002F5DF
:104BD0008062934211D002F5784293420DD002F5E3
:104BE0007052934209D0A2F59432934205D01A68CC
:104BF00042F001021A60002070479A6802F0070232
:104C0000062A07D01A6842F001021A600020704795
:104C10000120704700207047000001407047704736
:104C20007047704770B504460368DE681D6915F06B
:104C3000020F10D016F0020F0DD06FF002021A61B1
:104C40000123037703689B6913F0030F5ED0FFF71E
:104C5000E6FF0023237715F0040F12D016F0040F9F
:104C60000FD023686FF004021A61022323772368B0
:104C70009B6913F4407F4FD02046FFF7D0FF0023FD
:104C8000237715F0080F12D016F0080F0FD0236805
:104C90006FF008021A61042323772368DB6913F09D
:104CA000030F40D02046FFF7BAFF0023237715F00B
:104CB000100F12D016F0100F0FD023686FF01002F3
:104CC0001A61082323772368DB6913F4407F31D00E
:104CD0002046FFF7A4FF0023237715F0010F02D031
:104CE00016F0010F2DD115F0800F02D016F0800FB5
:104CF0002FD115F0400F02D016F0400F31D115F032
:104D0000200F02D016F0200F33D170BDFFF786FFC1
:104D10002046FFF785FF9CE72046FFF77FFF2046F0
:104D2000FFF77EFFABE72046FFF778FF2046FFF74F
:104D300077FFBAE72046FFF771FF2046FFF770FFC5
:104D4000C9E723686FF001021A612046FEF720FDD3
:104D5000C9E723686FF080021A61204600F010FB5B
:104D6000C7E723686FF040021A612046FFF759FF3A
:104D7000C5E723686FF020021A61204600F0FFFAB1
:104D8000C3E700000368324A904212D0B0F1804F6E
:104D90000FD0A2F57C4290420BD002F58062904287
:104DA00007D002F58062904203D002F5784290422B
:104DB00003D123F070034A681343254A90422AD056
:104DC000B0F1804F27D0A2F57C42904223D002F56B
:104DD000806290421FD002F5806290421BD002F5A3
:104DE0007842904217D002F57052904213D002F5EB
:104DF000806290420FD002F5806290420BD0A2F503
:104E00009832904207D002F58062904203D002F5BA
:104E10008062904203D123F44073CA68134323F0A5
:104E200080034A6913438A68C2620A688262084A38
:104E3000904203D002F58062904201D10A69026378
:104E4000026842F00402026001224261036070477E
:104E50000000014040B310B5044690F83D30F3B176
:104E6000022384F83D30214651F8040BFFF78AFFF6
:104E7000012384F8463084F83E3084F83F3084F8CB
:104E8000403084F8413084F8423084F8433084F86C
:104E9000443084F8453084F83D30002010BD80F85F
:104EA0003C30FFF778FEDBE70120704740B310B5D8
:104EB000044690F83D30F3B1022384F83D3021469A
:104EC00051F8040BFFF75EFF012384F8463084F8A5
:104ED0003E3084F83F3084F8403084F8413084F824
:104EE000423084F8433084F8443084F8453084F804
:104EF0003D30002010BD80F83C30FFF731FADBE791
:104F00000120704740B310B5044690F83D30F3B12E
:104F1000022384F83D30214651F8040BFFF732FF9D
:104F2000012384F8463084F83E3084F83F3084F81A
:104F3000403084F8413084F8423084F8433084F8BB
:104F4000443084F8453084F83D30002010BD80F8AE
:104F50003C30FFF7E9F8DBE701207047002853D029
:104F6000F8B50D46044690F83D30002B47D002239B
:104F700084F83D302268936823F4804323F00703CC
:104F80009360214651F8040BFFF7FCFE21688B6803
:104F90008A690E6A2868184322F4407222F00302DC
:104FA000AB68AF6943EA0723134323F47C4323F040
:104FB000FC03EA68EF6942EA07221A432B6A1B03E3
:104FC0002F6943EA0713134326F0AA066A686D693E
:104FD00042EA05123243886021688B6123681A62B5
:104FE000012384F8463084F83E3084F83F3084F85A
:104FF000423084F8433084F83D300020F8BD80F81A
:105000003C30FFF7C9F8B2E70120704730B4036ABB
:10501000026A22F0100202624468826922F4E642C7
:105020000D6842EA052223F020038D6843EA051348
:10503000114DA84203D005F58065A84206D123F0A2
:105040008003CD6843EA051323F040030A4DA842CC
:1050500003D005F58065A84207D124F440644D696A
:1050600044EA85048D6944EA8504446082614A68A3
:105070008263036230BC70470000014038B590F88D
:105080003C30012B66D004460D46012380F83C30AD
:105090000C2A5AD8DFE802F0075959591B595959B7
:1050A0003059595944000068FFF78CFC2268936915
:1050B00043F0080393612268936923F0040393612A
:1050C0002268936929690B43936100203EE00068E0
:1050D000FFF79CFF2268936943F4006393612268A1
:1050E000936923F48063936122689369296943EA91
:1050F00001239361002029E00068FFF79BFC2268F0
:10510000D36943F00803D3612268D36923F0040311
:10511000D3612268D36929690B43D361002015E06C
:105120000068FFF7BFFC2268D36943F40063D361D2
:105130002268D36923F48063D3612268D369296923
:1051400043EA0123D361002000E00120002384F81A
:105150003C3038BD0220FCE770B49446066A046A0D
:1051600024F0010404628469184DA8421CD0B0F1F7
:10517000804F19D0164A904216D002F580629042B4
:1051800012D002F5806290420ED002F57842904231
:105190000AD002F57052904206D0A2F594329042A5
:1051A00002D044F0010203E024F0030242EA0C02C0
:1051B00022F0F0021B01DBB2134326F00A0201F0D9
:1051C0000A0111438361016270BC70470000014015
:1051D0000004004038B590F83C30012B5ED0044606
:1051E0000D46012380F83C300C2A52D8DFE802F04B
:1051F00007515151195151512C5151513E00CB6819
:105200004A6809680068FFF7A7FF2268936923F0DE
:105210000C03936122689369A9680B439361002092
:1052200038E0CB684A6809680068FFF763FC2268C9
:10523000936923F44063936122689369A96843EA00
:1052400001239361002025E0CB684A680968006863
:10525000FFF76BFC2268D36923F00C03D36122684B
:10526000D369A9680B43D361002013E0CB684A6877
:1052700009680068FFF774FC2268D36923F440636F
:10528000D3612268D369A96843EA0123D36100206E
:1052900000E00120002384F83C3038BD0220FCE708
:1052A00090F83C20012A3DD010B40346012280F83A
:1052B0003C20022280F83D2002685068946820F06B
:1052C000700C086840EA0C0050601A681648824268
:1052D0001AD0B2F1804F17D0A0F57C40824213D093
:1052E00000F5806082420FD000F5806082420BD0D2
:1052F00000F57840824207D000F57050824203D01A
:10530000A0F59430824204D124F0800449682143FE
:105310009160012283F83D20002083F83C005DF875
:10532000044B70470220704700000140024690F88D
:105330003C30012B21D0012380F83C30CB6823F492
:1053400040738868034323F480634868034323F46D
:1053500000630868034323F480530869034323F47C
:1053600000534869034323F48043C9690B43116820
:105370004B64002082F83C00704702207047704761
:10538000704700004A4B5A6822F440325A605A680B
:1053900041680A435A600268536823F4807353607B
:1053A00002685368016943EA012353600268536845
:1053B00023F0407353600268536881680B43536065
:1053C0000268936823F40063936002689368C1687D
:1053D0000B439360826A374B9A4257D002689368B6
:1053E00023F07063936002689368816A0B43936053
:1053F0000268936823F04053936002689368C16A1F
:105400000B4393600268936823F002039360026881
:105410009368017E43EA4103936090F82030002BAB
:105420003FD00268536843F40063536002685368D6
:1054300023F46043536001684B68426A013A43EACF
:1054400042334B600268D36A23F47003D36201686D
:10545000CB6AC269013A43EA0253CB62026893689D
:1054600023F4007393600268936890F8301043EA65
:10547000412393600268936823F480639360026819
:105480009368416943EA8123936070470268936897
:1054900023F0706393600268936823F04053936035
:1054A000B0E70268536823F400635360CAE700BFA3
:1054B000002301400100000F38B310B50446036C0F
:1054C00043B1236C13F0100F0BD00120002384F89C
:1054D0003C3010BDFEF7E0FB0023636484F83C30F1
:1054E000EFE7236C23F4885323F0020343F0020315
:1054F00023642046FFF746FF00206064236C23F0FE
:10550000030343F001032364E0E701207047000038
:1055100030B482B00022019290F83C20012A00F0C1
:10552000B6800346012280F83C200A68092A40D947
:105530000468E06892B202EB42021E3A4FF0070C98
:105540000CFA02F220EA0202E2601C68E0680A88B3
:1055500002EB42021E3A8D6805FA02F20243E26053
:105560004A68062A3CD81C68606B02EB8202053A46
:105570004FF01F0C0CFA02F220EA020262631C6870
:10558000606B4A6802EB8202053AB1F800C00CFA7F
:1055900002F20243626318683E4A904250D0186893
:1055A0003C4A904255D0002083F83C0002B030BC09
:1055B00070470468206992B202EB42024FF0070C78
:1055C0000CFA02F220EA020222611C6820690A88B1
:1055D00002EB42028D6805FA02F202432261BFE744
:1055E0000C2A16D81D68286B02EB8202233A1F246E
:1055F00004FA02F220EA02022A631D68286B4A6854
:1056000002EB8202233A0C8804FA02F202432A6374
:10561000C1E71D68E86A02EB8202413A1F2404FADE
:1056200002F220EA0202EA621D68E86A4A6802EBB6
:105630008202413A0C8804FA02F20243EA62AAE7C3
:105640000A68122AABD11448426842F480024260D0
:10565000A5E70A68103A012AA5D80F48426842F423
:10566000000242600A68102A9DD10C4A12680C4957
:10567000A1FB0212920C02EB82025200019202E0A4
:10568000019A013A0192019A002AF9D18BE702208E
:105690008CE700BF0020014000230140640000208F
:1056A00083DE1B43002800F0E08170B582B0044621
:1056B000036813F0010F3BD09F4B9B6803F00C0372
:1056C000042B2CD09C4B9B6803F00C03082B21D09F
:1056D0006368B3F5803F4FD0B3F5A02F52D0964BFF
:1056E0001A6822F480321A601A6822F480221A6042
:1056F0006368002B50D000F0CBFF05468E4B1B6833
:1057000013F4003F14D100F0C3FF401B6428F5D907
:105710000320B1E1884B5B6813F4800FD8D0864B2F
:105720001B6813F4003F03D06368002B00F09F81D7
:10573000236813F0020F54D07F4B9B6813F00C0FBB
:105740003ED07D4B9B6803F00C03082B33D0E368FD
:10575000002B68D0794B01221A6000F099FF0546B2
:10576000754B1B6813F0020F54D100F091FF401BE2
:105770000228F5D903207FE16F4A136843F4803390
:105780001360B5E76C4B1A6842F480221A601A68FD
:1057900042F480321A60ABE700F07AFF0546664BB0
:1057A0001B6813F4003FC3D000F072FF401B642855
:1057B000F5D9032060E1604B5B6813F4800FC6D11C
:1057C0005D4B1B6813F0020F03D0E368012B40F020
:1057D0005081594A136823F0F803216943EAC10351
:1057E0001360236813F0080F42D063696BB3534B07
:1057F0000122C3F8802E00F04BFF05464E4B5B6F35
:1058000013F0020F34D100F043FF401B0228F5D9FA
:10581000032031E1484A136823F0F803216943EA81
:10582000C1031360DDE7454B00221A6000F030FF32
:105830000546414B1B6813F0020FD2D000F028FF41
:10584000401B0228F5D9032016E13C4B0022C3F887
:10585000802E00F01DFF0546374B5B6F13F0020FE3
:1058600006D000F015FF401B0228F5D9032003E104
:10587000236813F0040F77D02F4B1B6C13F0805F5D
:1058800033D1002301932C4B1A6C42F080521A64DE
:105890001B6C03F080530193019B0125284B1B686F
:1058A00013F4807F23D0A368012B34D0052B38D08C
:1058B000214B1A6F22F001021A671A6F22F00402BC
:1058C0001A67A368002B3DD000F0E2FE06461A4B93
:1058D0001B6F13F0020F46D100F0DAFE801B41F27D
:1058E00088339842F3D90320C6E00025D6E7144A4E
:1058F000136843F48073136000F0CAFE0646104B31
:105900001B6813F4807FCED100F0C2FE801B0228FA
:10591000F5D90320B0E0084A136F43F00103136781
:10592000CFE7054B1A6F42F004021A671A6F42F074
:1059300001021A67C5E700BF003802400000474275
:105940000070004000F0A4FE0646524B1B6F13F09F
:10595000020F08D000F09CFE801B41F28833984271
:10596000F3D9032088E0EDB9A369002B00F0838010
:10597000484A926802F00C02082A51D0022B17D034
:10598000454B00221A6600F083FE0446414B1B681B
:1059900013F0007F42D000F07BFE001B0228F5D9F7
:1059A000032069E03B4A136C23F080531364DBE768
:1059B000394B00221A6600F06BFE0546354B1B681A
:1059C00013F0007F06D000F063FE401B0228F5D9DB
:1059D000032051E0E369226A1343626A43EA8213B7
:1059E000A26A5208013A43EA0243E26A43EA0263C6
:1059F000284A5360284B01221A6600F049FE0446EB
:105A0000244B1B6813F0007F06D100F041FE001B01
:105A10000228F5D903202FE000202DE000202BE004
:105A2000012B2BD01B4B5B6803F48001E269914290
:105A300026D103F03F02216A8A4223D1616A47F6E8
:105A4000C0721A40B2EB811F1ED103F44031A26A2A
:105A50005208013AB1EB024F18D103F07063E26AC9
:105A6000B3EB026F14D1002006E001207047012043
:105A700002E0012000E0002002B070BD0120FBE741
:105A80000120F9E70120F7E70120F5E70120F3E71E
:105A90000120F1E7003802400000474208B5334BCF
:105AA0009B6803F00C03042B5BD0082B5BD12F4BBE
:105AB0005A6802F03F025B6813F4800F2CD02B4B26
:105AC0005868C0F388104FEA401CBCEB000C6EEB2A
:105AD0000E0E4FEA8E1343EA9C634FEA8C11B1EB32
:105AE0000C0163EB0E03DB0043EA5173C90011EBB9
:105AF000000C43F10003590200234FEA4C2041EA15
:105B0000DC51FBF72DFE194B5B68C3F301430133F6
